:100000000C9472000C9493000C9493000C94930045
:100010000C9493000C9493000C9493000C94930014
:100020000C9493000C9493000C9493000C94930004
:100030000C9493000C9493000C9493000C949300F4
:100040000C9493000C9482020C94BC020C949300C8
:100050000C9493000C9493000C9493000C949300D4
:100060000C9493000C9493000C9493000C949300C4
:100070000C9493000C9493000C9493000C949300B4
:100080000C9493000C9493000C9493000C949300A4
:100090000C9493000C9493000C9493000C94930094
:1000A0000C9493000C9493000C9493000C94930084
:1000B0000C9493000C9493000C9493000C94930074
:1000C0000C9493000C9493000C9493000C94930064
:1000D0000C9493000C9493000C9493000C94930054
:1000E0000C94930011241FBECFEFD1E2DEBFCDBF31
:1000F00000E00CBF12E0A0E0B2E0EAE3F3E100E0D0
:100100000BBF02C007900D92A830B107D9F712E0DB
:10011000A8E0B2E001C01D92A431B107E1F70E944E
:100120005D020C949B090C940000DF93CF9300D0E8
:100130000F92CDB7DEB79A8389836B834C83E981B5
:10014000FA818DE78083E981FA8115821482E98141
:10015000FA818B818283E981FA818C818383E981B1
:10016000FA8111820F900F900F900F90CF91DF9135
:100170000895DF93CF930F92CDB7DEB7E7E0F1E0BC
:100180008081E7E0F1E08FEF80830F90CF91DF91E6
:100190000895DF93CF9300D00F92CDB7DEB79A8347
:1001A0008983E981FA818181282F30E03C832B8388
:1001B0008B819C818130910531F02B813C812230F3
:1001C0003105B9F02CC0A8E0B1E0E8E0F1E08081B1
:1001D000482FE981FA818281282F30E081E090E088
:1001E000022E02C0880F991F0A94E2F7842B8C9389
:1001F00016C0A8E0B1E0E8E0F1E08081482FE98195
:10020000FA818281282F30E081E090E0022E02C046
:10021000880F991F0A94E2F7809584238C930F909E
:100220000F900F900F90CF91DF910895DF93CF93B0
:10023000CDB7DEB76E970FB6F894DEBF0FBECDBF59
:100240009E8F8D8FED8DFE8D848195810196ED8D34
:10025000FE8D95838483A8E0B1E0E8E0F1E0808141
:10026000482FED8DFE8D8281282F30E081E090E0D7
:1002700002C0880F991F2A95E2F7842B8C9380E0A7
:1002800090E0A0E2B1E4898F9A8FAB8FBC8F698D2B
:100290007A8D8B8D9C8D20E030E04AE755E40E94FA
:1002A000BE05DC01CB018D8B9E8BAF8BB88F6D892A
:1002B0007E898F89988D20E030E040E85FE30E94DE
:1002C000180788232CF481E090E09C8B8B8B3FC037
:1002D0006D897E898F89988D20E03FEF4FE757E445
:1002E0000E94B80618164CF5698D7A8D8B8D9C8D01
:1002F00020E030E040E251E40E94BE05DC01CB0189
:10030000BC01CD010E94E803DC01CB019C8B8B8BEF
:100310000FC080E991E09A8B898B89899A8901972E
:10032000F1F79A8B898B8B899C8901979C8B8B8B9E
:100330008B899C89009769F714C06D897E898F89A4
:10034000988D0E94E803DC01CB019C8B8B8B8B8901
:100350009C89988B8F878F8598890197F1F7988B67
:100360008F87A8E0B1E0E8E0F1E08081482FED8DD3
:10037000FE8D8281282F30E081E090E002C0880F5E
:10038000991F2A95E2F7809584238C9380E090E072
:10039000A0E2B1E48B879C87AD87BE876B857C85A7
:1003A0008D859E8520E030E04AE755E40E94BE0539
:1003B000DC01CB018F839887A987BA876F81788505
:1003C00089859A8520E030E040E85FE30E941807C5
:1003D00088232CF481E090E09E838D833FC06F8161
:1003E000788589859A8520E03FEF4FE757E40E94A2
:1003F000B80618164CF56B857C858D859E8520E0AA
:1004000030E040E251E40E94BE05DC01CB01BC01BA
:10041000CD010E94E803DC01CB019E838D830FC0D8
:1004200080E991E09C838B838B819C810197F1F71C
:100430009C838B838D819E8101979E838D838D818B
:100440009E81009769F714C06F81788589859A85A8
:100450000E94E803DC01CB019E838D838D819E8108
:100460009A83898389819A810197F1F79A83898395
:100470006E960FB6F894DEBF0FBECDBFCF91DF9161
:100480000895DF93CF93CDB7DEB7A0E8B0E0E0E802
:10049000F0E0808181608C93A1E8B0E0E1E8F0E0D9
:1004A00080818B608C93AFE6B0E0EFE6F0E0808176
:1004B00086608C93CF91DF910895DF93CF93CDB772
:1004C000DEB78EE092E060E041E00E94950088E0B7
:1004D00092E062E043E00E9495000E94B9000E9411
:1004E000410287E690E00E94F6028EE092E00E94D0
:1004F000C90088E092E00E94C9008EE092E00E946C
:100500001601FBCF1F920F920FB60F9200905B0067
:100510000F9211242F933F934F935F936F937F9389
:100520008F939F93AF93BF93EF93FF93DF93CF93FB
:10053000CDB7DEB78EE092E00E941601E8E8F0E069
:1005400080910E02882F90E091838083CF91DF917C
:10055000FF91EF91BF91AF919F918F917F916F919B
:100560005F914F913F912F910F9000925B000F9000
:100570000FBE0F901F9018951F920F920FB60F92FB
:1005800000905B000F9211242F933F934F935F9342
:100590006F937F938F939F93AF93BF93EF93FF934B
:1005A000DF93CF93CDB7DEB788E092E00E941601CB
:1005B000EAE8F0E080910802882F90E09183808340
:1005C000CF91DF91FF91EF91BF91AF919F918F916B
:1005D0007F916F915F914F913F912F910F9000927A
:1005E0005B000F900FBE0F901F901895DF93CF9375
:1005F0000F920F92CDB7DEB79A838983E5ECF0E0D6
:1006000089819A81892F99278083E4ECF0E08981A0
:100610008083A1ECB0E0E1ECF0E0808180618C931C
:10062000A1ECB0E0E1ECF0E0808188608C93E2EC3A
:10063000F0E086E080830F900F90CF91DF910895D6
:10064000DF93CF93CDB7DEB7E0ECF0E08081882375
:10065000DCF7E6ECF0E08081CF91DF910895DF9345
:10066000CF930F92CDB7DEB78983E0ECF0E08081C5
:10067000882F90E0807290700097B9F3E6ECF0E07C
:10068000898180830F90CF91DF910895DF93CF937D
:1006900000D00F92CDB7DEB769837A838B839C83BA
:1006A00089819A81AB81BC8128EE33E040E050E043
:1006B000BC01CD010E944209DA01C9012AE030E003
:1006C00040E050E0BC01CD010E944209DC01CB01B9
:1006D0000E942F0389819A81AB81BC8124E630E09E
:1006E00040E050E0BC01CD010E944209DA01C9019D
:1006F0002AE030E040E050E0BC01CD010E94420918
:10070000DC01CB010E942F0389819A81AB81BC81DE
:100710002AE030E040E050E0BC01CD010E944209F7
:10072000DA01C9012AE030E040E050E0BC01CD012F
:100730000E944209DC01CB010E942F0389819A812A
:10074000AB81BC812AE030E040E050E0BC01CD014B
:100750000E944209DC01CB010E942F0385EA0E941E
:100760002F030F900F900F900F90CF91DF9108956E
:10077000DF93CF9300D00F920F92CDB7DEB79D835A
:100780008C830E9420038B838B818432C9F481E0A7
:1007900090E09A83898311C00E9420038B83298172
:1007A0003A818C819D81FC01E20FF31F8B81808354
:1007B00089819A8101969A8389838B818A3061F736
:1007C0000F900F900F900F900F90CF91DF910895A1
:1007D000EF92FF920F931F937B018C0120E030E09A
:1007E00040E05FE40E94E80688238CF0C801B7016E
:1007F00020E030E040E05FE40E9460050E9448078E
:100800009B01AC01205030404040504806C0C80118
:10081000B7010E9448079B01AC01B901CA011F91B1
:100820000F91FF90EF900895A0E0B0E0EAE1F4E0CE
:100830000C946409DC012B01FA019C91923008F4BC
:1008400039C1EB018881823008F433C1943069F4F6
:10085000843009F02FC111969C91119789819817C6
:1008600009F428C1A0E0B2E025C1843009F421C117
:100870008230A9F4923009F01DC19A01AD0188E0DF
:10088000EA010990AE01E90109929E018150C1F788
:10089000E201898111969C918923818308C192305C
:1008A00009F407C112962D903C901397EB018A81B1
:1008B0009B811496AD90BD90CD90DC901797EC8005
:1008C000FD800E811F819101281B390BB90137FF73
:1008D00004C066277727621B730B603271050CF02A
:1008E00061C0121613066CF537014801062E04C0CC
:1008F00096948794779467940A94D2F721E030E035
:1009000040E050E004C0220F331F441F551F6A957A
:10091000D2F721503040404050402E213F2140230B
:100920005123211531054105510521F021E030E029
:1009300040E050E079018A01E628F72808291929C2
:100940003CC0232BD1F1260E371E35014601062E61
:1009500004C096948794779467940A94D2F721E020
:1009600030E040E050E004C0220F331F441F551F09
:100970006A95D2F721503040404050402A213B2117
:100980004C215D21211531054105510521F021E062
:1009900030E040E050E059016A01A628B728C82895
:1009A000D9280BC0821593052CF01C01AA24BB2466
:1009B000650103C0EE24FF24870111969C91D201AA
:1009C00011968C91981709F445C0992339F0A80124
:1009D00097012A193B094C095D0906C0A60195013A
:1009E0002E193F09400B510B57FD08C0118233826D
:1009F000228224833583468357831DC081E081830F
:100A00003382228288279927DC01821B930BA40B57
:100A1000B50B84839583A683B7830DC0220F331F44
:100A2000441F551F248335834683578382819381D6
:100A30000197938382832481358146815781DA012E
:100A4000C9010197A109B1098F5F9F4FAF4FBF4304
:100A500028F30BC0918333822282EA0CFB1C0C1D0D
:100A60001D1DE482F5820683178383E08083248141
:100A700035814681578157FF1AC0C901AA2797FDC2
:100A8000A095BA2F81709070A070B0705695479560
:100A900037952795822B932BA42BB52B8483958395
:100AA000A683B78382819381019693838283DF013A
:100AB00001C0D201CD01CDB7DEB7E2E10C948009CF
:100AC000A0E2B0E0E6E6F5E00C94700969837A8371
:100AD0008B839C832D833E834F835887E9E0EE2EE2
:100AE000F12CEC0EFD1ECE010196B7010E9471089B
:100AF0008E010F5E1F4FCE010596B8010E9471084E
:100B00008A8991E089278A8BC701B801AE01475EC7
:100B10005F4F0E9414040E949C07A096E6E00C948C
:100B20008C09A0E2B0E0E7E9F5E00C947009698374
:100B30007A838B839C832D833E834F835887F9E090
:100B4000EF2EF12CEC0EFD1ECE010196B7010E9496
:100B500071088E010F5E1F4FCE010596B8010E94ED
:100B60007108C701B801AE01475E5F4F0E941404CF
:100B70000E949C07A096E6E00C948C09A0E2B0E0ED
:100B8000E4ECF5E00C94640969837A838B839C839D
:100B90002D833E834F835887CE010196BE01675F48
:100BA0007F4F0E947108CE010596BE016F5E7F4F98
:100BB0000E9471089985923088F089898230C8F046
:100BC000943019F4823051F404C0843029F4923006
:100BD00081F480E092E0C6C0923049F420E09A852A
:100BE0008A89981321E02A87CE010996BBC08230FA
:100BF00049F420E09A858A89981321E02A8BCE0156
:100C00004196B0C02D843E844F8458886D887E887C
:100C10008F88988CEE24FF248701AA24BB246501C9
:100C200040E050E060E070E0E0E0F0E0C1018170A1
:100C30009070892BE9F0E60CF71C081D191D9A012C
:100C4000AB012A0D3B1D4C1D5D1D80E090E0A0E036
:100C5000B0E0E614F7040805190520F481E090E0FF
:100C6000A0E0B0E0BA01A901480F591F6A1F7B1F1D
:100C7000AA0CBB1CCC1CDD1C97FE08C081E090E0D8
:100C8000A0E0B0E0A82AB92ACA2ADB2A3196E032CD
:100C9000F10549F0660C771C881C991C5694479402
:100CA00037942794C3CFFA85EA892B893C898B85B1
:100CB0009C85280F391F2E5F3F4F17C0CA018170D6
:100CC0009070892B61F016950795F794E79480E072
:100CD00090E0A0E0B0E8E82AF92A0A2B1B2B7695D1
:100CE0006795579547952F5F3F4F77FDE7CF0CC02E
:100CF000440F551F661F771F17FD4160EE0CFF1C48
:100D0000001F111F21503040403090E0590790E003
:100D1000690790E4790760F32B8F3C8FDB01CA01F0
:100D20008F779070A070B07080349105A105B105E7
:100D300061F447FD0AC0E114F1040105110529F031
:100D4000405C5F4F6F4F7F4F40781A8EFE1711F057
:100D500081E08A8F4D8F5E8F6F8F78A383E0898FBC
:100D6000CE0149960E949C07A096E2E10C9480096E
:100D7000A8E1B0E0EEEBF6E00C94700969837A83A9
:100D80008B839C832D833E834F83588789E0E82E95
:100D9000F12CEC0EFD1ECE010196B7010E947108E8
:100DA0008E010F5E1F4FCE010596B8010E9471089B
:100DB0008985823040F08989823028F0C701B801E6
:100DC0000E94E90801C08FEF6896E6E00C948C0958
:100DD000A8E1B0E0EEEEF6E00C94700969837A8346
:100DE0008B839C832D833E834F83588789E0E82E35
:100DF000F12CEC0EFD1ECE010196B7010E94710888
:100E00008E010F5E1F4FCE010596B8010E9471083A
:100E10008985823040F08989823028F0C701B80185
:100E20000E94E90801C08FEF6896E6E00C948C09F7
:100E3000A8E1B0E0EEE1F7E00C94700969837A83F1
:100E40008B839C832D833E834F83588789E0E82ED4
:100E5000F12CEC0EFD1ECE010196B7010E94710827
:100E60008E010F5E1F4FCE010596B8010E947108DA
:100E70008985823040F08989823028F0C701B80125
:100E80000E94E90801C081E06896E6E00C948C09B4
:100E9000ACE0B0E0EEE4F7E00C94740969837A8387
:100EA0008B839C83CE010196BE016B5F7F4F0E94B6
:100EB00071088D81823061F1823050F1843021F4EB
:100EC0008E81882351F12EC02F81388537FD20C0B7
:100ED0006E812F3131051CF06623F9F023C08EE1BD
:100EE00090E0821B930B29853A854B855C8504C075
:100EF00056954795379527958A95D2F76623B1F091
:100F000050954095309521953F4F4F4F5F4F0EC004
:100F100020E030E040E050E009C02FEF3FEF4FEF1E
:100F20005FE704C020E030E040E050E8B901CA01CA
:100F30002C96E2E00C949009DF92EF92FF920F93CF
:100F40001F93FC01E480F58006811781D1808081A8
:100F5000823048F480E090E0A0E1B0E0E82AF92A8D
:100F60000A2B1B2BA5C0843009F49FC0823021F4CA
:100F7000EE24FF24870105C0E114F10401051105E9
:100F800019F4E0E0F0E096C0628173819FEF62386F
:100F900079070CF05BC022E83FEF261B370B2A31A4
:100FA00031052CF020E030E040E050E02AC0B801EC
:100FB000A701022E04C076956795579547950A9428
:100FC000D2F781E090E0A0E0B0E004C0880F991F64
:100FD000AA1FBB1F2A95D2F70197A109B1098E213B
:100FE0009F21A023B1230097A105B10521F081E045
:100FF00090E0A0E0B0E09A01AB01282B392B4A2BFE
:101000005B2BDA01C9018F779070A070B0708034CB
:101010009105A105B10539F427FF09C0205C3F4FB8
:101020004F4F5F4F04C0215C3F4F4F4F5F4FE0E099
:10103000F0E02030A0E03A07A0E04A07A0E45A0719
:1010400010F0E1E0F0E079018A0127C06038710515
:1010500064F5FB01E158FF4FD801C7018F7790700D
:10106000A070B07080349105A105B10539F4E7FE98
:101070000DC080E490E0A0E0B0E004C08FE390E019
:10108000A0E0B0E0E80EF91E0A1F1B1F17FF05C005
:1010900016950795F794E794319687E0169507958E
:1010A000F794E7948A95D1F705C0EE24FF248701D1
:1010B000EFEFF0E06E2F679566276795902F9F778B
:1010C000D794DD24D7948E2F8695492F462B582F01
:1010D0005D29B701CA011F910F91FF90EF90DF903A
:1010E0000895FC01DB01408151812281622F6F77DD
:1010F00070E0221F2227221F9381892F880F822BC5
:10110000282F30E0991F9927991F11969C931197CA
:1011100021153105A9F5411551056105710511F438
:1011200082E037C082E89FEF13969C938E931297CC
:101130009A01AB0167E0220F331F441F551F6A95C8
:10114000D1F783E08C930DC0220F331F441F551F2E
:1011500012968D919C911397019713969C938E9361
:101160001297203080E0380780E0480780E4580775
:1011700058F314962D933D934D935C9317970895D0
:101180002F3F310579F4411551056105710519F4B9
:1011900084E08C93089564FF03C081E08C9312C0B7
:1011A0001C9210C02F57304013963C932E931297E9
:1011B00083E08C9387E0440F551F661F771F8A9545
:1011C000D1F7706414964D935D936D937C9317974C
:1011D00008951F93DC01FB019C91923008F447C0F5
:1011E0008081823008F443C0943051F411961C91F0
:1011F000843099F58181682F70E0611B71093FC0CF
:10120000843021F0923031F48230B9F18181882329
:1012100089F12DC011961C9111978230F1F08181D6
:101220001817D9F412962D913C91139782819381CE
:101230008217930794F028173907BCF014968D9104
:101240009D910D90BC91A02D2481358146815781BF
:10125000281739074A075B0718F4112341F00AC021
:1012600082179307A407B50740F4112319F061E032
:1012700070E005C06FEF7FEF02C060E070E0CB016F
:101280001F910895A1E21A2EAA1BBB1BFD010DC0E0
:10129000AA1FBB1FEE1FFF1FA217B307E407F50726
:1012A00020F0A21BB30BE40BF50B661F771F881F02
:1012B000991F1A9469F760957095809590959B0198
:1012C000AC01BD01CF0108952F923F924F925F92E2
:1012D0006F927F928F929F92AF92BF92CF92DF9246
:1012E000EF92FF920F931F93CF93DF93CDB7DEB7AB
:1012F000CA1BDB0B0FB6F894DEBF0FBECDBF19942F
:101300002A88398848885F846E847D848C849B8495
:10131000AA84B984C884DF80EE80FD800C811B81A3
:10132000AA81B981CE0FD11D0FB6F894DEBF0FBED2
:0A133000CDBFED010895F894FFCF42
:08133A000000000000000000AB
:00000001FF
