:100000000C9472000C9493000C9493000C94930045
:100010000C9493000C9493000C9493000C94930014
:100020000C9493000C9493000C9493000C94930004
:100030000C9493000C9493000C9493000C949300F4
:100040000C9493000C9493000C9493000C949300E4
:100050000C9493000C9493000C9493000C94F10472
:100060000C9493000C9493000C9493000C949300C4
:100070000C9493000C9493000C9493000C949300B4
:100080000C9493000C9493000C9493000C949300A4
:100090000C9493000C9493000C9493000C94930094
:1000A0000C9493000C9493000C9493000C94930084
:1000B0000C9493000C9493000C9493000C94930074
:1000C0000C9493000C9493000C9493000C94930064
:1000D0000C9493000C9493000C9493000C94930054
:1000E0000C94930011241FBECFEFD1E2DEBFCDBF31
:1000F00000E00CBF13E0A0E0B2E0E8E3FAE100E0CA
:100100000BBF02C007900D92A830B107D9F713E0DA
:10011000A8E0B3E001C01D92A032B107E1F70E9450
:10012000BB040C941A0D0C940000DF93CF9300D005
:100130000F92CDB7DEB79A8389836B834C8380910E
:100140001C0390911D03A0911E03B0911F03E98130
:10015000FA8180839183A283B383E981FA8181E06C
:100160008483E981FA8111861086E981FA818B8185
:100170008683E981FA818C818783E981FA811582FE
:100180000F900F900F900F90CF91DF910895DF9314
:10019000CF930F92CDB7DEB7E7E0F1E08081E7E0E3
:1001A000F1E08FEF80830F90CF91DF910895DF937F
:1001B000CF9300D00F92CDB7DEB79A838983E981C0
:1001C000FA818581282F30E03C832B838B819C81B1
:1001D0008130910531F02B813C8122303105B9F01D
:1001E0002CC0A8E0B1E0E8E0F1E08081482FE9818F
:1001F000FA818781282F30E081E090E0022E02C052
:10020000880F991F0A94E2F7842B8C9316C0A8E0FC
:10021000B1E0E8E0F1E08081482FE981FA8187814F
:10022000282F30E081E090E0022E02C0880F991F55
:100230000A94E2F7809584238C930F900F900F908F
:100240000F90CF91DF9108950F931F93DF93CF937A
:10025000CDB7DEB7EA970FB6F894DEBF0FBECDBFBD
:1002600009AB1AAB2BAB3CAB4DAB5EAB6FAB78AF16
:1002700089AF9AAFA8E0B1E0E8E0F1E08081482FD3
:100280008FA9282F30E081E090E002C0880F991FED
:100290002A95E2F7842B8C9380E090E0A0E0B0E414
:1002A0008DA79EA7AFA7B8AB6DA57EA58FA598A972
:1002B0002BEA3AEA4AEA50E40E94E407DC01CB0167
:1002C00089A79AA7ABA7BCA769A57AA58BA59CA56A
:1002D00020E030E040E85FE30E94EA0988231CF454
:1002E00081E088A791C069A57AA58BA59CA520E08F
:1002F00030E04FE753E40E948A0918160CF07BC0E7
:100300006DA57EA58FA598A920E030E04AE754E4CA
:100310000E94DE08DC01CB018CA39DA3AEA3BFA38A
:100320006CA17DA18EA19FA120E030E04AE755E4B9
:100330000E94E407DC01CB0188A399A3AAA3BBA375
:1003400068A179A18AA19BA120E030E040E85FE3A9
:100350000E94EA0988232CF481E090E09F8F8E8F21
:100360003FC068A179A18AA19BA120E03FEF4FE7A0
:1003700057E40E948A0918164CF56CA17DA18EA144
:100380009FA120E030E040E251E40E94E407DC015C
:10039000CB01BC01CD010E940E06DC01CB019F8F79
:1003A0008E8F0FC080E991E09D8F8C8F8C8D9D8DFD
:1003B0000197F1F79D8F8C8F8E8D9F8D01979F8F69
:1003C0008E8F8E8D9F8D009769F724C068A179A1CB
:1003D0008AA19BA10E940E06DC01CB019F8F8E8F0C
:1003E0008E8D9F8D9B8F8A8F8A8D9B8D0197F1F7C4
:1003F0009B8F8A8F0FC069A57AA58BA59CA50E94AB
:100400000E06DC01CB0188A788A5898F898D8A9586
:10041000F1F7898FA8E0B1E0E8E0F1E08081482FB2
:100420008FA9282F30E081E090E002C0880F991F4B
:100430002A95E2F7809584238C9380E090E0A0E0F9
:10044000B0E48D8B9E8BAF8BB88F6D897E898F8941
:10045000988D2BEA3AEA4AEA50E40E94E407DC016C
:10046000CB01898B9A8BAB8BBC8B69897A898B8901
:100470009C8920E030E040E85FE30E94EA0988239D
:100480001CF481E0888B91C069897A898B899C8969
:1004900020E030E04FE753E40E948A0918160CF080
:1004A0007BC06D897E898F89988D20E030E04AE796
:1004B00054E40E94DE08DC01CB018C879D87AE8767
:1004C000BF876C857D858E859F8520E030E04AE77B
:1004D00055E40E94E407DC01CB0188879987AA874D
:1004E000BB87688579858A859B8520E030E040E878
:1004F0005FE30E94EA0988232CF481E090E09F8367
:100500008E833FC0688579858A859B8520E03FEF93
:100510004FE757E40E948A0918164CF56C857D85D3
:100520008E859F8520E030E040E251E40E94E407A0
:10053000DC01CB01BC01CD010E940E06DC01CB0128
:100540009F838E830FC080E991E09D838C838C8193
:100550009D810197F1F79D838C838E819F81019707
:100560009F838E838E819F81009769F724C0688561
:1005700079858A859B850E940E06DC01CB019F83CD
:100580008E838E819F819B838A838A819B81019741
:10059000F1F79B838A830FC069897A898B899C894B
:1005A0000E940E06DC01CB01888B888989838981B2
:1005B0008A95F1F78983EA960FB6F894DEBF0FBEED
:1005C000CDBFCF91DF911F910F910895DF93CF930E
:1005D00000D00F92CDB7DEB79A838983E981FA8183
:1005E0008581282F30E03C832B838B819C81813057
:1005F000910531F02B813C812230310559F013C037
:10060000E981FA81808591850196E981FA81918756
:10061000808709C0E981FA81808591850197E98108
:10062000FA81918780870F900F900F900F90CF9154
:10063000DF9108950F931F93DF93CF930F920F9243
:10064000CDB7DEB79A838983E981FA8184818823D3
:1006500009F43EC0E981FA812081318142815381D0
:10066000E981FA818481882F90E0A0E0B0E0280F32
:10067000391F4A1F5B1F80911C0390911D03A0919D
:100680001E03B0911F0382179307A407B50704F157
:10069000E981FA8100811181228133814481558170
:1006A00066817781808591850E94240180911C0359
:1006B00090911D03A0911E03B0911F03E981FA815F
:1006C00080839183A283B38389819A810E94E60209
:1006D0000F900F90CF91DF911F910F910895DF93AD
:1006E000CF93CDB7DEB7E2970FB6F894DEBF0FBE5B
:1006F000CDBF988F8F8B7A8F698F5C8F4B8F8F894F
:10070000988DAA2797FDA095BA2FBC01CD010E9414
:100710001A0ADC01CB01BC01CD012DEC3CEC4CE014
:100720005FE30E94E407DC01CB01BC01CD010E9424
:10073000780ADC01CB019A838983898D9A8D9E0189
:100740002D5F3F4F3E8F2D8F98A38F8F3AE039A3B7
:10075000EF8DF8A100802F8D38A12F5F3F4F38A378
:100760002F8FED8DFE8D00822D8D3E8D2F5F3F4FA3
:100770003E8F2D8F39A1315039A389A1882341F7AC
:100780008B8D9C8DFE013D96FBA3EAA39DA38CA3BC
:10079000FAE0FEA3ECA1FDA100802CA13DA12F5FFA
:1007A0003F4F3DA32CA3EAA1FBA100822AA13BA1BC
:1007B0002F5F3F4F3BA32AA33EA131503EA38EA102
:1007C000882341F7E98DFA8D8AE08483E98DFA8DDB
:1007D00011861086EB8DFC8D8AE08483EB8DFC8D79
:1007E0001186108689819A811816190614F5E98DEB
:1007F000FA8D81E08583EB8DFC8D82E08583898D88
:100800009A8D0E94D7008B8D9C8D0E94D70008C0C6
:10081000898D9A8D0E941A038B8D9C8D0E941A03DC
:10082000E98DFA8D2085318589819A818217930718
:1008300078F789819A819923ACF5E981FA81F8A743
:10084000EFA32FA138A533233CF48FA198A5909551
:1008500081959F4F98A78FA3EFA1F8A5FA83E9830D
:10086000E98DFA8D82E08583EB8DFC8D81E08583B7
:10087000898D9A8D0E94D7008B8D9C8D0E94D70008
:1008800008C0898D9A8D0E941A038B8D9C8D0E94C1
:100890001A03EB8DFC8D2085318589819A81821721
:1008A000930778F7898D9A8D9AA789A79E012D5F66
:1008B0003F4F3CA72BA73AE03DA7EBA5FCA5008046
:1008C0002BA53CA52F5F3F4F3CA72BA7E9A5FAA579
:1008D000008229A53AA52F5F3F4F3AA729A73DA53A
:1008E00031503DA78DA5882341F78B8D9C8D9FA707
:1008F0008EA7FE013D96F9ABE8ABFAE0FAABE8A9AA
:10090000F9A9008028A939A92F5F3F4F39AB28AB3F
:10091000EEA5FFA500822EA53FA52F5F3F4F3FA765
:100920002EA73AA931503AAB8AA9882341F7E2961B
:100930000FB6F894DEBF0FBECDBFCF91DF91089503
:10094000DF93CF93CDB7DEB7A4E4B0E0E4E4F0E00A
:1009500080818C93A5E4B0E0E5E4F0E080818460E0
:100960008C93AEE6B0E0EEE6F0E0808181608C939F
:10097000CF91DF910895DF93CF93CDB7DEB782E1BA
:1009800093E060E041E00E94950088E093E062E03F
:1009900043E00E9495000E94C7000E94A004789442
:1009A00087E690E00E941C0581E080930D0381E0C2
:1009B0008093170383E08093160383E080930C03F6
:1009C00082E193E00E941A0388E093E00E941A03F8
:1009D00082E193E00E94D70088E093E00E94D70074
:1009E000EFCF1F920F920FB60F9211248F939F9308
:1009F000AF93BF93DF93CF93CDB7DEB780911C0346
:100A000090911D03A0911E03B0911F030196A11D9B
:100A1000B11D80931C0390931D03A0931E03B093FC
:100A20001F03CF91DF91BF91AF919F918F910F9055
:100A30000FBE0F901F901895DF93CF930F920F92D8
:100A4000CDB7DEB79A838983E5ECF0E089819A819E
:100A5000892F99278083E4ECF0E089818083A1ECE1
:100A6000B0E0E1ECF0E0808180618C93A1ECB0E03B
:100A7000E1ECF0E0808188608C93E2ECF0E086E0CD
:100A800080830F900F90CF91DF910895DF93CF93E4
:100A9000CDB7DEB7E0ECF0E080818823DCF7E6EC50
:100AA000F0E08081CF91DF910895DF93CF930F9293
:100AB000CDB7DEB78983E0ECF0E08081882F90E04D
:100AC000807290700097B9F3E6ECF0E08981808342
:100AD0000F90CF91DF910895DF93CF9300D00F92C5
:100AE000CDB7DEB769837A838B839C8389819A81B2
:100AF000AB81BC8128EE33E040E050E0BC01CD0189
:100B00000E94C10CDA01C9012AE030E040E050E067
:100B1000BC01CD010E94C10CDC01CB010E94550536
:100B200089819A81AB81BC8124E630E040E050E0CD
:100B3000BC01CD010E94C10CDA01C9012AE030E0FC
:100B400040E050E0BC01CD010E94C10CDC01CB01B2
:100B50000E94550589819A81AB81BC812AE030E0F1
:100B600040E050E0BC01CD010E94C10CDA01C90196
:100B70002AE030E040E050E0BC01CD010E94C10C11
:100B8000DC01CB010E94550589819A81AB81BC8132
:100B90002AE030E040E050E0BC01CD010E94C10CF1
:100BA000DC01CB010E94550585EA0E9455050F9096
:100BB0000F900F900F90CF91DF910895DF93CF9317
:100BC00000D00F920F92CDB7DEB79D838C830E9429
:100BD00046058B838B818432C9F481E090E09A834F
:100BE000898311C00E9446058B8329813A818C81BB
:100BF0009D81FC01E20FF31F8B81808389819A81A3
:100C000001969A8389838B818A3061F70F900F90C8
:100C10000F900F900F90CF91DF910895EF92FF9278
:100C20000F931F937B018C0120E030E040E05FE4F4
:100C30000E94BA0988238CF0C801B70120E030E097
:100C400040E05FE40E9486070E94780A9B01AC01A5
:100C5000205030404040504806C0C801B7010E94B3
:100C6000780A9B01AC01B901CA011F910F91FF9055
:100C7000EF900895A0E0B0E0E0E4F6E00C94E30C1F
:100C8000DC012B01FA019C91923008F439C1EB018F
:100C90008881823008F433C1943069F4843009F0DB
:100CA0002FC111969C9111978981981709F428C139
:100CB000A0E0B2E025C1843009F421C18230A9F45A
:100CC000923009F01DC19A01AD0188E0EA01099056
:100CD000AE01E90109929E018150C1F7E2018981CB
:100CE00011969C918923818308C1923009F407C130
:100CF00012962D903C901397EB018A819B8114965C
:100D0000AD90BD90CD90DC901797EC80FD800E816A
:100D10001F819101281B390BB90137FF04C06627D9
:100D20007727621B730B603271050CF061C01216DD
:100D300013066CF537014801062E04C0969487947B
:100D4000779467940A94D2F721E030E040E050E0D5
:100D500004C0220F331F441F551F6A95D2F721503C
:100D60003040404050402E213F2140235123211547
:100D700031054105510521F021E030E040E050E02F
:100D800079018A01E628F728082919293CC0232B74
:100D9000D1F1260E371E35014601062E04C0969469
:100DA0008794779467940A94D2F721E030E040E08A
:100DB00050E004C0220F331F441F551F6A95D2F71D
:100DC00021503040404050402A213B214C215D21A0
:100DD000211531054105510521F021E030E040E0C9
:100DE00050E059016A01A628B728C828D9280BC0A5
:100DF000821593052CF01C01AA24BB24650103C0B5
:100E0000EE24FF24870111969C91D20111968C91BA
:100E1000981709F445C0992339F0A80197012A19B8
:100E20003B094C095D0906C0A60195012E193F0931
:100E3000400B510B57FD08C011823382228224835C
:100E40003583468357831DC081E0818333822282AC
:100E500088279927DC01821B930BA40BB50B848395
:100E60009583A683B7830DC0220F331F441F551FE0
:100E700024833583468357838281938101979383AB
:100E800082832481358146815781DA01C901019726
:100E9000A109B1098F5F9F4FAF4FBF4328F30BC02C
:100EA000918333822282EA0CFB1C0C1D1D1DE482FF
:100EB000F5820683178383E0808324813581468110
:100EC000578157FF1AC0C901AA2797FDA095BA2FCD
:100ED00081709070A070B0705695479537952795A2
:100EE000822B932BA42BB52B84839583A683B78366
:100EF00082819381019693838283DF0101C0D201B5
:100F0000CD01CDB7DEB7E2E10C94FF0CA0E2B0E07A
:100F1000ECE8F7E00C94EF0C69837A838B839C8375
:100F20002D833E834F835887E9E0EE2EF12CEC0EA3
:100F3000FD1ECE010196B7010E94F00B8E010F5EDF
:100F40001F4FCE010596B8010E94F00B8A8991E0EF
:100F500089278A8BC701B801AE01475E5F4F0E94A7
:100F60003A060E941B0BA096E6E00C940B0DA0E243
:100F7000B0E0EDEBF7E00C94EF0C69837A838B83A0
:100F80009C832D833E834F835887F9E0EF2EF12C0D
:100F9000EC0EFD1ECE010196B7010E94F00B8E01F2
:100FA0000F5E1F4FCE010596B8010E94F00BC701DE
:100FB000B801AE01475E5F4F0E943A060E941B0BCC
:100FC000A096E6E00C940B0DA0E2B0E0EAEEF7E0AC
:100FD0000C94E30C69837A838B839C832D833E83FB
:100FE0004F835887CE010196BE01675F7F4F0E94F5
:100FF000F00BCE010596BE016F5E7F4F0E94F00B95
:101000009985923088F089898230C8F0943019F43B
:10101000823051F404C0843029F4923081F480E0AD
:1010200092E0C6C0923049F420E09A858A899813EC
:1010300021E02A87CE010996BBC0823049F420E026
:101040009A858A89981321E02A8BCE014196B0C0F7
:101050002D843E844F8458886D887E888F88988C34
:10106000EE24FF248701AA24BB24650140E050E060
:1010700060E070E0E0E0F0E0C10181709070892BE9
:10108000E9F0E60CF71C081D191D9A01AB012A0DA9
:101090003B1D4C1D5D1D80E090E0A0E0B0E0E6143B
:1010A000F7040805190520F481E090E0A0E0B0E025
:1010B000BA01A901480F591F6A1F7B1FAA0CBB1C4C
:1010C000CC1CDD1C97FE08C081E090E0A0E0B0E001
:1010D000A82AB92ACA2ADB2A3196E032F10549F05A
:1010E000660C771C881C991C569447943794279457
:1010F000C3CFFA85EA892B893C898B859C85280F8B
:10110000391F2E5F3F4F17C0CA0181709070892B25
:1011100061F016950795F794E79480E090E0A0E0E1
:10112000B0E8E82AF92A0A2B1B2B76956795579584
:1011300047952F5F3F4F77FDE7CF0CC0440F551FFA
:10114000661F771F17FD4160EE0CFF1C001F111F6B
:1011500021503040403090E0590790E0690790E41A
:10116000790760F32B8F3C8FDB01CA018F7790707A
:10117000A070B07080349105A105B10561F447FD00
:101180000AC0E114F1040105110529F0405C5F4F2C
:101190006F4F7F4F40781A8EFE1711F081E08A8FD3
:1011A0004D8F5E8F6F8F78A383E0898FCE01499634
:1011B0000E941B0BA096E2E10C94FF0CA8E1B0E0AA
:1011C000E4EEF8E00C94EB0C69837A838B839C83C8
:1011D0002D833E834F835887B9E0EB2EF12CEC0E24
:1011E000FD1ECE010196B7010E94F00B8E010F5E2D
:1011F0001F4FCE010596B8010E94F00B29852230C1
:1012000008F47EC03989323010F4B8017CC08A8578
:101210009A8989278A87243011F0223031F42317E4
:1012200009F06EC060E072E06EC0343039F41D86A3
:101230001E861F86188A1C861B8604C0323021F445
:1012400084E08987B7015FC02B853C858B899C89A9
:10125000281B390B3C872B87ED84FE840F8518896A
:10126000AD88BE88CF88D88CEA14FB040C051D0518
:1012700040F4EE0CFF1C001F111F215030403C8732
:101280002B8720E030E040E050E080E090E0A0E0FC
:10129000B0E460E070E0EA14FB040C051D0540F0CA
:1012A000282B392B4A2B5B2BEA18FB080C091D094C
:1012B000B695A79597958795EE0CFF1C001F111FFB
:1012C0006F5F7F4F6F31710531F7DA01C9018F7799
:1012D0009070A070B07080349105A105B10561F4E3
:1012E00027FD0AC0E114F1040105110529F0205C75
:1012F0003F4F4F4F5F4F20782D873E874F87588B4A
:10130000BE01675F7F4FCB010E941B0B6896EAE02E
:101310000C94070DA8E1B0E0E0E9F9E00C94EF0CC3
:1013200069837A838B839C832D833E834F83588785
:1013300089E0E82EF12CEC0EFD1ECE010196B701DE
:101340000E94F00B8E010F5E1F4FCE010596B80173
:101350000E94F00B8985823040F08989823028F024
:10136000C701B8010E94680C01C08FEF6896E6E0E3
:101370000C940B0DA8E1B0E0E0ECF9E00C94EF0C5C
:1013800069837A838B839C832D833E834F83588725
:1013900089E0E82EF12CEC0EFD1ECE010196B7017E
:1013A0000E94F00B8E010F5E1F4FCE010596B80113
:1013B0000E94F00B8985823040F08989823028F0C4
:1013C000C701B8010E94680C01C08FEF6896E6E083
:1013D0000C940B0DA8E1B0E0E0EFF9E00C94EF0CF9
:1013E00069837A838B839C832D833E834F835887C5
:1013F00089E0E82EF12CEC0EFD1ECE010196B7011E
:101400000E94F00B8E010F5E1F4FCE010596B801B2
:101410000E94F00B8985823040F08989823028F063
:10142000C701B8010E94680C01C081E06896E6E03F
:101430000C940B0DA8E0B0E0E0E2FAE00C94EC0CA8
:101440009B01AC0183E08983DA01C9018827B7FDDC
:1014500083959927AA27BB27B82E21153105410569
:10146000510519F482E089833AC08823A9F020301D
:1014700080E0380780E0480780E8580729F460E0FA
:1014800070E080E09FEC30C0EE24FF248701E21A78
:10149000F30A040B150B02C079018A018EE1C82EF4
:1014A000D12CDC82CB82ED82FE820F831887C801AB
:1014B000B7010E94CC0A01971816190684F4082E69
:1014C00004C0EE0CFF1C001F111F0A94D2F7ED821E
:1014D000FE820F831887C81AD90ADC82CB82BA82AF
:1014E000CE0101960E941B0B2896E9E00C94080D92
:1014F000ACE0B0E0EEE7FAE00C94F30C69837A8399
:101500008B839C83CE010196BE016B5F7F4F0E944F
:10151000F00B8D81823061F1823050F1843021F402
:101520008E81882351F12EC02F81388537FD20C050
:101530006E812F3131051CF06623F9F023C08EE156
:1015400090E0821B930B29853A854B855C8504C00E
:1015500056954795379527958A95D2F76623B1F02A
:1015600050954095309521953F4F4F4F5F4F0EC09E
:1015700020E030E040E050E009C02FEF3FEF4FEFB8
:101580005FE704C020E030E040E050E8B901CA0164
:101590002C96E2E00C940F0DEF92FF920F931F93A5
:1015A0007B018C0180E0E81680E0F80681E0080706
:1015B00080E0180788F48FEFE816F10401051105A3
:1015C00031F028F088E090E0A0E0B0E017C080E0C3
:1015D00090E0A0E0B0E012C080E0E81680E0F806FD
:1015E00080E0080781E0180728F088E190E0A0E09B
:1015F000B0E004C080E190E0A0E0B0E020E230E0A4
:1016000040E050E0281B390B4A0B5B0B04C01695D9
:101610000795F794E7948A95D2F7F701E85FFD4FB5
:101620008081281B310941095109C9011F910F917E
:10163000FF90EF900895DF92EF92FF920F931F9328
:10164000FC01E480F58006811781D18080818230A1
:1016500048F480E090E0A0E1B0E0E82AF92A0A2B03
:101660001B2BA5C0843009F49FC0823021F4EE24E6
:10167000FF24870105C0E114F1040105110519F4E7
:10168000E0E0F0E096C0628173819FEF62387907F5
:101690000CF05BC022E83FEF261B370B2A313105E7
:1016A0002CF020E030E040E050E02AC0B801A70173
:1016B000022E04C076956795579547950A94D2F700
:1016C00081E090E0A0E0B0E004C0880F991FAA1F5D
:1016D000BB1F2A95D2F70197A109B1098E219F213D
:1016E000A023B1230097A105B10521F081E090E08E
:1016F000A0E0B0E09A01AB01282B392B4A2B5B2BE1
:10170000DA01C9018F779070A070B07080349105B4
:10171000A105B10539F427FF09C0205C3F4F4F4FA9
:101720005F4F04C0215C3F4F4F4F5F4FE0E0F0E060
:101730002030A0E03A07A0E04A07A0E45A0710F0E2
:10174000E1E0F0E079018A0127C06038710564F5B5
:10175000FB01E158FF4FD801C7018F779070A0704F
:10176000B07080349105A105B10539F4E7FE0DC0D4
:1017700080E490E0A0E0B0E004C08FE390E0A0E05F
:10178000B0E0E80EF91E0A1F1B1F17FF05C01695D3
:101790000795F794E794319687E016950795F794A7
:1017A000E7948A95D1F705C0EE24FF248701EFEF77
:1017B000F0E06E2F679566276795902F9F77D794F7
:1017C000DD24D7948E2F8695492F462B582F5D29DF
:1017D000B701CA011F910F91FF90EF90DF9008951C
:1017E000FC01DB01408151812281622F6F7770E023
:1017F000221F2227221F9381892F880F822B282FB7
:1018000030E0991F9927991F11969C9311972115E4
:101810003105A9F5411551056105710511F482E005
:1018200037C082E89FEF13969C938E9312979A018C
:10183000AB0167E0220F331F441F551F6A95D1F794
:1018400083E08C930DC0220F331F441F551F129647
:101850008D919C911397019713969C938E93129759
:10186000203080E0380780E0480780E4580758F3CC
:1018700014962D933D934D935C93179708952F3FA6
:10188000310579F4411551056105710519F484E0BC
:101890008C93089564FF03C081E08C9312C01C9266
:1018A00010C02F57304013963C932E93129783E02D
:1018B0008C9387E0440F551F661F771F8A95D1F7D9
:1018C000706414964D935D936D937C931797089570
:1018D0001F93DC01FB019C91923008F447C080818A
:1018E000823008F443C0943051F411961C91843036
:1018F00099F58181682F70E0611B71093FC08430C8
:1019000021F0923031F48230B9F18181882389F15C
:101910002DC011961C9111978230F1F0818118171A
:10192000D9F412962D913C9113978281938182175D
:10193000930794F028173907BCF014968D919D9168
:101940000D90BC91A02D24813581468157812817A7
:1019500039074A075B0718F4112341F00AC08217C0
:101960009307A407B50740F4112319F061E070E074
:1019700005C06FEF7FEF02C060E070E0CB011F9108
:101980000895A1E21A2EAA1BBB1BFD010DC0AA1FC0
:10199000BB1FEE1FFF1FA217B307E407F50720F0D8
:1019A000A21BB30BE40BF50B661F771F881F991F53
:1019B0001A9469F760957095809590959B01AC019C
:1019C000BD01CF0108952F923F924F925F926F9287
:1019D0007F928F929F92AF92BF92CF92DF92EF92BF
:1019E000FF920F931F93CF93DF93CDB7DEB7CA1B40
:1019F000DB0B0FB6F894DEBF0FBECDBF19942A885B
:101A0000398848885F846E847D848C849B84AA8412
:101A1000B984C884DF80EE80FD800C811B81AA819F
:101A2000B981CE0FD11D0FB6F894DEBF0FBECDBF6A
:081A3000ED010895F894FFCFC9
:101A3800000000000000000000010202030303038D
:101A48000404040404040404050505050505050546
:101A58000505050505050505060606060606060626
:101A6800060606060606060606060606060606060E
:101A780006060606060606060707070707070707F6
:101A880007070707070707070707070707070707DE
:101A980007070707070707070707070707070707CE
:101AA80007070707070707070707070707070707BE
:101AB80007070707070707070808080808080808A6
:101AC800080808080808080808080808080808088E
:101AD800080808080808080808080808080808087E
:101AE800080808080808080808080808080808086E
:101AF800080808080808080808080808080808085E
:101B0800080808080808080808080808080808084D
:101B1800080808080808080808080808080808083D
:101B2800080808080808080808080808080808082D
:081B3800080808080808080865
:00000001FF
